:03000000020008F3
:070061007521B47522007542
:070068002301752406E4F5F5
:05006F0025F526E4F573
:0500740027F528E4F56A
:0500790029F52AE4F561
:05007E002BF52CE4F558
:050083002DF52EE4F54F
:040088002FF53075AB
:06008C003100753900751A
:060092004E3E754F207583
:06009800500075630075C5
:02009E006400FC
:0300A00002000358
:0500030012155180FE02
:0A00A300AA82AB837C007D007E0082
:0900AD00C3ED9AEE9B50138C0781
:0300B600BF5A002E
:0500B90050030F80F868
:0900BE008F040DBD00E90E80E67F
:0100C7002216
:0A00C800C2811201EBC2800201EBBD
:0D00D200C2811201EBD2801201EBD281023B
:0200DF0001EB33
:0A00E100A20092811201EBD28012FE
:0700EB0001EBC2800201EBF2
:0B00F2001201EBD2811201EBD2801250
:0C00FD0001EBA28192D71201EBC280122D
:0501090001EBA2D7226A
:04010E00AA827B0046
:03011200BB080027
:0A0115005025EA30E704D281800291
:02011F00C2819B
:0E012100C002C0031201EBD2801201EBC280BB
:0D012F001201EBD003D002EA2AFA0B80D6B1
:03013C000200F2CC
:06013F007A00D2817B0072
:03014500BB0800F4
:0E0148005029EA2AFAD280C002C0031201EB4D
:0E015600D003D002A281E4334202C002C003F3
:0E0164001201EBC2801201EBD003D0020B801F
:01017200D2BA
:030173008A82225B
:0A017600C008858108AA82C00212A9
:0A01800000C8D0028A8212010EE5C9
:0A018A000824FDF8868212010EE53C
:0A0194000824FCF8868212010E1206
:05019E0000D2D0082290
:0A01A300C008858108AA82C002127C
:0C01AD0000C8D0028A82C00212010EE5D8
:0A01B9000824FDF8868212010E12E0
:0D01C30000D21200C8D00274014AF5821269
:0D01D000010E12013FAA82D2F0C00285F09C
:0501DD00201200E112F8
:0901E20000D2D0028A82D008226A
:0201EB007A0593
:0301ED00DAFE2215
:0601F0007582070201FC0C
:0601F6007582060201FC07
:0A01FC00C008E581F5082404F58130
:0B020600AA82C0021200C885218212EB
:0E021100010ED0028A8212010ED281D280121A
:09021F0000C874014521F58212AA
:0E022800010E12013FAA827B00C2F0C002C08C
:080236000385F0201200E11223
:0E023E00013FAC82D003D0028C05E44202EDF9
:0C024C004203C2F0C002C00385F0201283
:0902580000E112013FD2F085F033
:05026100201200E11273
:0E02660000D2D003D0028A828B831217C8AA5E
:0E02740082AB83ACF0FDC002C003C004C00525
:0C02820090D70A75F0A3743C121590A8E8
:0C028E000808A68208A68308A6F008F65F
:0C029A00E58124FCF581A8080886020814
:0E02A60086030886040886057433C0E074934E
:0E02B400C0E07488C0E07443C0E08A828B838F
:0C02C2008CF0ED121554A80808A6820864
:0E02CE00A68308A6F008F6E58124FCF581A8B9
:0C02DC00080886020886030886040886CD
:0E02E80005C002C003C004C00590000075F000
:0C02F600207441121590A80808A6820888
:0E030200A68308A6F008F6E58124FCF581A884
:0C03100008088602088603088604088698
:0C031C00058A828B838CF0ED850881D06F
:020328000822A9
:0E032A009000641200A3E4C0E0746BC0E075A4
:0D03380082D01203F215811581900064122D
:0E03450000A37407C0E07468C0E07582D01297
:0E03530003F2158115817401C0E0746BC0E0E7
:0E0361007582D01203F2158115817403C0E07D
:0E036F00741AC0E07582D01203F21581158158
:0E037D00E4C0E07419C0E07582D01203F215DE
:0C038B00811581E523C40354F8FAC00278
:0E039700741BC0E07582D01203F2158115812F
:0C03A500E522C40354F8FAC002741CC026
:0E03B100E07582D01203F2158115817403C02D
:0E03BF00E0741DC0E07582D01203F2158115A6
:0D03CD00817422C0E07437C0E07582D01248
:0E03DA0003F215811581E4C0E07438C0E075AF
:0A03E80082D01203F2158115812264
:0803F200C008858108AA82E51C
:0A03FA000824FCF8E6C0E0E5082442
:0E040400FDF8E6C0E08A8212017615811581AE
:03041200D00822ED
:08041500C008858108AA82E5F8
:0C041D000824FDF8E6C0E08A821201A36A
:050429001581D008223E
:0A042E00C008858108C082C083C0A9
:0D043800F005810581743BC0E07582D01293
:0C0445000415AD8215818D31743CC0E0BF
:0C0451007582D0120415AD8215818D3229
:0E045D00743DC0E07582D0120415AD82158189
:0C046B008D33743EC0E07582D012041581
:0C047700AD8215818D34743FC0E07582A9
:0C048300D0120415AD8215818D35744037
:0D048F00C0E07582D0120415AD8215818D7C
:06049C0036AE317D00AF19
:0A04A200327A00EF4205EA4206A894
:0C04AC00080886820886830886F0ED129E
:0804B800168AA3EE12168AA8B1
:0C04C0000808740226FAE40836FB0886DF
:0A04CC0004AD33E5082404F808A687
:0A04D60005187600AF347D00E5083C
:0E04E0002404F8E6420708E642058A828B8370
:0C04EE008CF0EF12168AA3ED12168AA8FB
:0C04FA000808740426FAE40836FB0886A3
:0A05060004AD35E5082404F808A64A
:0A05100005187600AF367D00E508FF
:0E051A002404F8E6420708E642058A828B8335
:0C0528008CF0EF12168AA3ED12168A85E3
:050534000881D008223F
:0A053900C008858108C082C083C09D
:0D054300F0058105817448C0E07582D0127A
:0C0550000415AD8215818D367447C0E0A3
:0C055C007582D0120415AD8215818D351A
:0E0568007446C0E07582D0120415AD82158174
:0C0576008D347445C0E07582D01204156D
:0C058200AD8215818D337444C0E0758299
:0C058E00D0120415AD8215818D3274432B
:0D059A00C0E07582D0120415AD8215818D70
:0A05A700318D067D00AF327A00EFBF
:0C05B1004205EA4206A808088682088677
:0E05BD00830886F0ED12168AA3EE12168AA8A5
:0C05CB000808740226FAE40836FB0886D3
:0A05D70004AD33E5082404F808A67B
:0A05E10005187600AF347D00E50830
:0E05EB002404F8E6420708E642058A828B8364
:0C05F9008CF0EF12168AA3ED12168AA8EF
:0C0605000808740426FAE40836FB088696
:0A06110004AD35E5082404F808A63E
:0A061B0005187600AF367D00E508F3
:0E0625002404F8E6420708E642058A828B8329
:0C0633008CF0EF12168AA3ED12168A85D7
:05063F000881D0082233
:0E0644007480C0E0746BC0E07582D01203F2C7
:0A065200158115819000640200A3D9
:0E065C0075A00FE5A0F4FA53020FEA901A8B76
:0E066A0093FA75A0F0ABA07C00EBF4FBECF46F
:0E067800FCC4CBC4540F6BCB540FCB6BCB30F8
:04068600E30244F057
:0E068A0053030FEB901A8B93FB8A047D00C381
:0E069800EC9404ED940050258B047D00C3EC1F
:0C06A6009404ED94005018EA2A25E0248A
:0A06B20094FAE4341AFCEB2AF582F6
:0906BC00E43CF583E493F582228D
:0406C5007582FF2219
:0406C9007A007B0038
:0D06CD008B047D00BCFF06BD00038A822265
:0E06DA008A04C003C00412065CAD82D004D0B6
:0A06E800038D02ECB502030B80DB6A
:0406F2007B0080D732
:0D06F6001206C9AA827B00BAFFF6BB00F312
:0E0703001206C9AA827B00BAFF05BB00028065
:01071100F1F6
:030712000206C913
:0E0715007582A812087F75823F12087F7582D8
:0E072300D312087F75820012087F7582401283
:0C073100087F7582A112087F7582C81233
:0C073D00087F7582DA12087F75821212A4
:0C074900087F75828112087F75827F1284
:0C075500087F7582A412087F7582A6122E
:0C076100087F7582D512087F7582801217
:0C076D00087F75828D12087F75821412BF
:09077900087F7582AF12087F02AF
:02078200081855
:06078400AA82BA0A01225C
:0E078A00EA3395E0FBEA24E0FAEB34FFFBC013
:0E07980002C0039000051216A3AC82AD8315BB
:0907A6008115818C028D037C0099
:0307AF00BC050086
:0E07B20050338C057E00ED2AFDEE3BCD25E098
:0A07C000CD33FEED24A4F582EE34E3
:0C07CA001AF583E493FDA3E4938D82C034
:0E07D60002C003C004120891D004D003D00268
:0307E4000C80C8BE
:0607E7007582000208917A
:0607ED00AA82AB83ACF010
:0E07F3008A828B838CF0121927FD60188D828C
:0E080100C002C003C004120784D004D003D08C
:08080F00020ABA00DF0B80DCD5
:0108170022BE
:020818007A0064
:03081A00BA080019
:0E081D005023C002E4C0E08A82120843158115
:04082B00D0027B80FC
:0E082F00758200C002C003120891D003D002EF
:05083D00DBF00A80D889
:010842002293
:08084300C008858108AA82E5C6
:0A084B000824FDF80606E50824FD68
:0C085500F8740F56F582C00212087FE50F
:0C0861000824FDF8E6C4540FFB74104B93
:0D086D00F58212087FD00274B04AF58212A5
:05087A00087FD00822F8
:0E087F00AA82C002E4C0E075827812017615EC
:04088D00811581222E
:0E089100AA82C0027440C0E07582781201761F
:05089F00158115812206
:0A08A400E56475F006A4FAC00285B1
:0808AE00638212084315812248
:0A08B6001208A475825F1207840285
:0208C00008A48A
:0A08C2001208A475822012078402B8
:0208CC0008A47E
:0608CE001208C20563AA36
:0708D400635302078A6375FC
:0508DB0064151208A4E1
:0808E000AA641564EA600FE54B
:0A08E800642439F8760075822012AE
:0408F200078480EA0D
:0A08F6007564001208A47582D31285
:0C090000087FE563C40354F8FA74082A69
:05090C00F58202087FE6
:0A091100AA82E5642439F8A602BAB0
:06091B00080415648007CA
:070921008A821207840564BD
:08092800E5642439F876002291
:08093000AA82AB83ACF07D004C
:0E093800ED2AFEE43BFF8C008E828F8388F058
:08094600121927FE6002800374
:03094E008D822275
:0E0951008E82C002C003C004C005120911D07E
:0A095F0005D004D003D0020D80CFB4
:0D0969001206F6E58275F064A4FAC00212D1
:0E09760006F6E58275F00AA4FBC0031206F631
:0C098400AC82D003D002EB2A2CF58222BA
:0B0990001208B6120969AA82C0021208
:08099B0008C2D002BA0A0122D1
:0709A3008A8212091180E6AF
:0A09AA001208CE901E5A75F080125C
:0609B40009301208CE908C
:0909BA001E5F75F0801209301275
:0909C30008CE901E6375F080124D
:0609CC0009301208CE9074
:0909D2001E6A75F0801209301252
:0909DB0008CE901E7675F0801222
:0609E40009301208CE905C
:0909EA001E7B75F0801209301229
:0909F30008CE901E8575F08012FB
:0609FC00093075820022A3
:0A0A02001208CE901E9375F08012CA
:060A0C0009301208CE9033
:0C0A12001EA875F08012093075820122C8
:0A0A1E001208CE901EBB75F0801286
:060A280009301208CE9017
:0C0A2E001EA875F08012093075820122AC
:0E0A3A00AA82AB83ACF074072AFDE43BFE8C6D
:0E0A4800078D828E838FF0121927FDBD6E047C
:040A56007E00801787
:070A5A00BD66047E0180105F
:0A0A61001208CE901ECC75F0801232
:060A6B0009307582012232
:0E0A710074042AFAE43BFB8A828B838CF01219
:060A7F001927FABA30004D
:070A850040627437B5020066
:0D0A8C00405BEA24D0FA25E02A900A997315
:070A9900020AB1020AB802D3
:060AA0000ABF020AC602B3
:060AA6000ACD020AD40291
:050AAC000ADB020AE272
:070AB100EE24FF929080414A
:070AB800EE24FF9291803A49
:070ABF00EE24FF9292803348
:070AC600EE24FF9293802C47
:070ACD00EE24FF9294802546
:070AD400EE24FF9295801E45
:070ADB00EE24FF9296801744
:070AE200EE24FF9297801043
:0A0AE9001208CE901EDF75F0801297
:060AF300093075820122AA
:040AF90075820022E0
:0A0AFD001208CE901EF275F0801270
:060B070009301208CE12B5
:040B0D0009907A15BC
:0C0B11008A031AEB600EEA244EF8EA2476
:080B1D0039F98703A60380ECFF
:040B250075820022B3
:0A0B29001208CE901F0475F0801230
:090B330009307582071201FC1261
:0E0B3C0017D4AA82AB83C002C00374E8C0E0E5
:0E0B4A007403C0E08A828B831219B3AC82ADB3
:0E0B580083158115817464C0E0E4C0E08C82D6
:0E0B66008D8312155FAC821581158174302CC1
:0E0B7400F582120911D003D002C002C0037432
:0E0B820064C0E0E4C0E08A828B831219B3AC39
:0E0B900082AD8315811581740AC0E0E4C0E0D7
:0E0B9E008C828D8312155FAC821581158174D7
:0E0BAC00302CF58212091175822E120911D01B
:0E0BBA0003D002740AC0E0E4C0E08A828B839C
:0E0BC8001219B3AA821581158174302AF582A4
:0A0BD600120911901F0E75F0801235
:060BE00009301208CE905E
:0C0BE6001F1275F0801209307582061293
:0E0BF20001FC1217D4AA82AB83C002C00374A8
:0E0C0000E8C0E07403C0E08A828B831219B34F
:0E0C0E00AC82AD83158115817464C0E0E4C032
:0E0C1C00E08C828D8312155FAC8215811581EC
:0E0C2A0074302CF582120911D003D002C002E2
:0E0C3800C0037464C0E0E4C0E08A828B8312C3
:0E0C460019B3AC82AD8315811581740AC0E02C
:0E0C5400E4C0E08C828D8312155FAC821581A6
:0E0C6200158174302CF58212091175822E1244
:0E0C70000911D003D002740AC0E0E4C0E08A8B
:0E0C7E00828B831219B3AA82158115817430FE
:0D0C8C002AF582120911901F0E75F08012DA
:060C990009307582002203
:050C9F00AA82BA30003A
:0B0CA400B3E433FB600B7439B50200B1
:060CAF00B3E433FA700407
:040CB5007A0080023F
:020CB9007A01BE
:030CBB008A822208
:0A0CBE00C008858108C082C083C011
:0C0CC800F0C0E0E5812408F581E5082477
:0E0CD40005F876000876CA08769A08763BA8DE
:0C0CE2000808B6001508B6001108B6009E
:0E0CEE000D08B60009758230120911020E427F
:0C0CFC00A80808080808E630E71975820F
:0C0D08002D120911A80808C3E496F60893
:0B0D1400E496F608E496F608E496F674
:0C0D1F00E5082405F8E6C0E008E6C0E0A6
:0C0D2B0008E6C0E008E6C0E0A808088662
:0E0D3700820886830886F008E6121772AC82E6
:0E0D4500AD83AAF0FBE58124FCF581BC0045DE
:0E0D5300BD0042BA003FBB003C740AC0E0E4A1
:0C0D6100C0E0C0E0C0E0E5082405F88612
:0E0D6D00820886830886F008E6121772AA82B2
:0C0D7B00AB83ACF0FDE58124FCF581E5C4
:0C0D8700082405F8A60208A60308A6042C
:050D930008A6058087A1
:0C0D9800E5082405F8B6000F08B6000BB3
:0B0DA40008B6000708B60003020E426C
:0C0DAF00E5082405F8E6C0E008E6C0E016
:0C0DBB0008E6C0E008E6C0E0A8080886D2
:0E0DC700820886830886F008E6121772AA8258
:0E0DD500AB83ACF0FDE58124FCF581740AC00F
:0E0DE300E0E4C0E0C0E0C0E08A828B838CF0C8
:0E0DF100ED12171EAA82E58124FCF5817430F4
:0E0DFF002AF582120911740AC0E0E4C0E0C0B7
:0C0E0D00E0C0E0E5082405F886820886B5
:0E0E1900830886F008E6121772AA82AB83AC3B
:0C0E2700F0FDE58124FCF581E5082405C0
:0D0E3300F8A60208A60308A60408A60502FA
:020E40000D980B
:060E4200850881D00822A2
:0A0E4800C008E581F5082408F581D3
:0B0E5200A80808E4F608F608F608F609
:0C0E5D00E5082405F8E4F608F608F6089D
:0B0E6900F61208CE901F1C75F08012DE
:070E740009301209907E0015
:0C0E7B00EE2439F88605BD0003020EFFCE
:0E0E87008D82C006120C9FE582D0066067C007
:0C0E950006E5082405F8E6C0E008E6C009
:0E0EA100E008E6C0E008E6C0E090000AE4F5D4
:0E0EAF00F0121943AA82AB83ACF0FDE581245A
:0C0EBD00FCF581D006E5082405F8A6022B
:0C0EC90008A60308A60408A605EE2439BC
:0E0ED500F886047D00EC24D0FCED34FFFD33E4
:0C0EE30095E0FAFBE5082405F8EC26F683
:0C0EEF00ED0836F6EA0836F6EB0836F699
:040EFB000E020E7B5A
:020EFF008E0261
:0C0F01008A031AEB6020EA2439F886030A
:0C0F0D00BB2DF1E5082405F8C3E496F6BE
:0E0F190008E496F608E496F608E496F680DA08
:090F2700AA3FBA2B1DA80808E539
:0C0F3000082405F9E726F609E70836F664
:0D0F3C0009E70836F609E70836F602122824
:0A0F4900BA2D1DA80808E5082405CC
:0E0F5300F9E726F609E70836F609E70836F64C
:080F610009E70836F602122828
:0C0F6900BA2A42E5082405F8E6C0E008BA
:0C0F7500E6C0E008E6C0E008E6C0E0A826
:0C0F8100080886820886830886F008E6CF
:0E0F8D00121943AB82AC83ADF0FEE58124FC6B
:0C0F9B00F581A80808A60308A60408A613
:070FA7000508A6060212284E
:0C0FAE00BA2F42E5082405F8E6C0E00870
:0C0FBA00E6C0E008E6C0E008E6C0E0A8E1
:0C0FC600080886820886830886F008E68A
:0E0FD200121772AB82AC83ADF0FEE58124FCF9
:0C0FE000F581A80808A60308A60408A6CE
:070FEC000508A60602122809
:0C0FF300BA2542E5082405F8E6C0E00835
:0C0FFF00E6C0E008E6C0E008E6C0E0A89C
:0C100B00080886820886830886F008E644
:0E10170012171EAB82AC83ADF0FEE58124FC07
:0C102500F581A80808A60308A60408A688
:071031000508A606021228C3
:0B103800BA5E71E5082405F88606A8E2
:0A1043000808E5082405F9E6F7089F
:0D104D0009E6F70809E6F70809E6F78E0343
:08105A008B041B7401B50400B6
:0510620040030212280A
:0C106700C003E5082405F8E6C0E008E638
:0C107300C0E008E6C0E008E6C0E0A80805
:0E107F000886820886830886F008E612194368
:0E108D00AC82AD83AFF0FBE58124FCF581A8B9
:0C109B000808A60408A60508A60708A679
:0510A70003D00380AE40
:0A10AC00BA2155A8080886068E0335
:0810B6008B041B7401B504005A
:0510BE004003021228AE
:0E10C3008B047D007E007F00C003C004C005CA
:0C10D100C006C007A808088682088683B5
:0E10DD000886F008E6121943AC82AD83AEF02F
:0C10EB00FFE58124FCF581D003A8080873
:0D10F700A60408A60508A60608A60780B2F4
:0D110400BA6F571208CE901F2375F08012AD
:0611110009301208CE9027
:091117001F3075F080120930123E
:0911200008CE901F4075F080120A
:0611290009301208CE900F
:09112F001F5375F0801209301203
:0911380008CE901F6075F08012D2
:0611410009301208CE90F7
:091147001F6B75F08012093012D3
:0911500008CE901F7E75F080129C
:0511590009300212281C
:0C115E00BA630EA80808E4F608F608F6CC
:05116A0008F602122846
:09116F00BA710675820002125CDF
:0D117800BA684A1208CE901F8C75F08012E4
:0611850009301208CE90B3
:09118B001F9675F0801209301264
:0911940008CE901FAB75F080122B
:06119D0009301208CE909B
:0911A3001FB975F0801209301229
:0911AC0008CE901FBF75F08012FF
:0611B50009301208CE9083
:0A11BB001E5A75F08012093080639F
:0D11C500BA001A1208CE901E9375F0801229
:0611D20009301208CE9066
:0A11D8001EA875F080120930804651
:0C11E200E5082405F8B6000E08B6000A67
:0A11EE0008B6000608B600028018DB
:0A11F800E5082405F8A90809E6F748
:0E1202000809E6F70809E6F70809E6F780187C
:0A1210001208CE901EBB75F080128C
:06121A0009301208CE901D
:081220001EA875F080120930D0
:0C122800A80808B6000F08B6000B08B6B6
:09123400000708B60003020E5D7C
:0A123D001208CE901FC475F0801255
:0C1247000930A808088682088683088603
:09125300F008E6120CBE020E5D6B
:06125C00850881D0082284
:0A126200C008858108AA82AB83ACA6
:0C126C00F0C002C003C0041208CEE50868
:0E12780024FDF8745826F582120911901FCD3E
:0D12860075F080120930D004D003D002E5CD
:0C1293000824FDF8E675F002A4AEF02A75
:0E129F00FAEE3BFB8A828B838CF0121927FA41
:0E12AD00A3121927FB3395E0FC8A828B838CF9
:0712BB00F0120CBED0082266
:0A12C20012032A90002B75F0401271
:0C12CC000539E4C0E090002B75F04012E2
:0E12D800126215817401C0E090002B75F04089
:0E12E60012126215817402C0E090002B75F0A8
:0A12F400401212621581758200227B
:0A12FE0012032A90002575F040123B
:0C130800042EE4C0E090002575F04012B7
:0E131400126215817401C0E090002575F04052
:0E13220012126215817402C0E090002575F071
:0A133000401212621581758200223E
:08133A00AA82AB83ACF07D0038
:0E134200ED2AFEE43BFF8C008E828F8388F044
:08135000121927FE6002800360
:031358008D822261
:03135B000D80E41E
:0A135E00C00885810805810581AAF9
:0C13680082AB83ACF0E50824FBF886059E
:061374000886060886074A
:0C137A008A828B838CF0A80808121927C7
:0C138600F6A80808B60005758201803A40
:0B1392008D828E838FF0A808080812DF
:0C139D001927F6A8080808B6000575829C
:0313A900018020A0
:0A13AC00A80808A908090986F0E75F
:0513B600B5F002800506
:0513BB00758200800CAA
:0513C0000ABA00010B58
:0713C5000DBD00B10E80AE6A
:0613CC00850881D0082213
:0E13D200AA82AB83ACF0121927FD60028003E3
:0313E000020A02FC
:0D13E300C002C003C004C002C003C00490DB
:0E13F0001E5A75F08012135EAD8215811581B4
:0E13FE001581D004D003D0027E00BD0106BED2
:05140C0000030209AA23
:0D141100C002C003C004C002C003C00490AC
:0E141E001E5F75F08012135EAD821581158180
:0E142C001581D004D003D0027E00BD010CBE9D
:0B143A0000098A828B838CF0020A3AC2
:0D144500C002C003C004C002C003C0049078
:0E1452001E6375F08012135EAD821581158148
:0E1460001581D004D003D0027E00BD0106BE6F
:05146E000003020AFD6D
:0D147300C002C003C004C002C003C004904A
:0E1480001E6A75F08012135EAD821581158113
:0E148E001581D004D003D0027E00BD0106BE41
:05149C000003020B2912
:0D14A100C002C003C004C002C003C004901C
:0E14AE001E7675F08012135EAD8215811581D9
:0E14BC001581D004D003D0027E00BD0106BE13
:0514CA000003020E48C2
:0D14CF00C002C003C004C002C003C00490EE
:0E14DC001E7B75F08012135EAD8215811581A6
:0E14EA001581D004D003D0027E00BD0106BEE5
:0514F80000030212C216
:0D14FD00C002C003C004901E8575F080126F
:0E150A00135EAA821581158115817B00BA013E
:0715180006BB00030212FEF6
:03151F00020A1E9F
:0315220012071598
:0A1525001208CE90004E75F040123F
:06152F0009301209909042
:0B153500004E75F04012133AE58224CE
:0C15400039FA7B007C408A828B838CF09F
:05154C001213D280D44F
:031551000215225E
:091A8B0004000100020000000348
:0E1A9400070809FF040506FF010203FFFF001B
:021AA200FFFF44
:0E1AA400000000000000000000000000000034
:0E1AB2002F00000000000000070000000700E9
:0E1AC000000014007F0014007F0014002400BA
:0E1ACE002A007F002A001200230013000800E7
:0E1ADC006400620036004900550022005000F0
:0E1AEA000000050003000000000000001C00CA
:0E1AF8002200410000000000410022001C00FE
:0E1B06000000140008003E0008001400080053
:0E1B140008003E000800080000000000A000CD
:0E1B220060000000080008000800080008002D
:0E1B30000000600060000000000020001000B7
:0E1B3E000800040002003E005100490045006E
:0E1B4C003E00000042007F004000000042000A
:0E1B5A00610051004900460021004100450095
:0E1B68004B0031001800140012007F00100026
:0E1B7600270045004500450039003C004A00AC
:0E1B8400490049003000010071000900050011
:0E1B92000300360049004900490036000600F5
:0E1BA0004900490029001E00000036003600F2
:0E1BAE0000000000000056003600000000009D
:0E1BBC00080014002200410000001400140074
:0E1BCA0014001400140000004100220014005A
:0E1BD800080002000100510009000600320062
:0E1BE6004900590051003E007C001200110021
:0E1BF40012007C007F004900490049003600C5
:0E1C02003E0041004100410022007F004100F1
:0E1C1000410022001C007F00490049004900ED
:0E1C1E0041007F0009000900090001003E009E
:0E1C2C004100490049007A007F0008000800CE
:0E1C3A0008007F00000041007F004100000014
:0E1C48002000400041003F0001007F00080026
:0E1C56001400220041007F00400040004000CA
:0E1C640040007F0002000C0002007F007F00A5
:0E1C72000400080010007F003E004100410009
:0E1C800041003E007F00090009000900060037
:0E1C8E003E004100510021005E007F00090071
:0E1C9C00190029004600460049004900490091
:0E1CAA003100010001007F00010001003F0039
:0E1CB8004000400040003F001F0020004000A0
:0E1CC60020001F003F004000380040003F009B
:0E1CD4006300140008001400630007000800FD
:0E1CE200700008000700610051004900450035
:0E1CF000430000007F0041004100000055004D
:0E1CFE00AA005500AA00550000004100410058
:0E1D0C007F000000040002000100020004003D
:0E1D1A00400040004000400040000000030078
:0E1D280005000000000020005400540054008C
:0E1D360078007F004800440044003800380068
:0E1D44004400440044002000380044004400E5
:0E1D520048007F003800540054005400180070
:0E1D600008007E000900010002001800A40027
:0E1D6E00A400A4007C007F0008000400040014
:0E1D7C007800000044007D00400000004000A0
:0E1D8A00800084007D0000007F001000280013
:0E1D980044000000000041007F0040000000F9
:0E1DA6007C0004001800040078007C00080097
:0E1DB40004000400780038004400440044009D
:0E1DC2003800FC002400240024001800180043
:0E1DD000240024001800FC007C000800040021
:0E1DDE00040008004800540054005400200087
:0E1DEC0004003F004400400020003C00400086
:0E1DFA00400020007C001C0020004000200063
:0E1E08001C003C004000300040003C00440044
:0E1E160028001000280044001C00A000A000BE
:0E1E2400A0007C004400640054004C00440008
:0E1E3200000010007C00820000000000000094
:0E1E4000FF0000000000000082007C00100087
:0C1E4E000000000006000900090006006A
:051E5A0068656C7000DA
:041E5F006C6564004A
:071E630070726F6D707400D6
:0C1E6A0074656D706572617475726500BE
:051E76006D61746800BD
:0A1E7B006779726F73636F70650082
:0E1E8500616363656C65726F6D6574657200F4
:0E1E93004E6F20636F6D6D616E64207375700D
:071EA100706C6965642E00FE
:0E1EA800547970652027682720666F722068C5
:051EB600656C702E00B8
:0E1EBB00556E6B6E6F776E20636F6D6D616E8E
:031EC900642E0084
:0E1ECC006C6564205B302D375D205B6F6E2FE0
:051EDA006F66665D006B
:0E1EDF006C6564205B302D375D205B6F6E7C80
:051EED006F66665D0058
:0E1EF200456E746572206E65772070726F6D9C
:041F000070743A00BF
:0A1F04006F626A6563743A202000E2
:041F0E00207E4300EE
:0A1F1200616D6269656E743A20008B
:071F1C006D6174683E2000B6
:0D1F23002B20286164646974696F6E2900C9
:0E1F30002D20287375627472616374696F6E80
:021F3E00290078
:0E1F40002A20286D756C7469706C6963617479
:051F4E00696F6E29001F
:0D1F53002F20286469766973696F6E29007C
:0B1F60002520286D6F64756C6F290050
:0E1F6B005E20286578706F6E656E7469617413
:051F7900696F6E2900F4
:0E1F7E00212028666163746F7269616C29000E
:0A1F8C005B6F706572616E645D00AA
:0E1F96005B6F70657261746F725D205B6F70BF
:071FA4006572616E645D00CF
:0E1FAB006F70657261746F72206C69737400E0
:061FB900636C656172001B
:051FBF0071756974005A
:091FC4002020202020203D2000F7
:081FCD002D617869733A2000D0
:0B155400A8811818C6B2E7C60216C531
:0A155F00E58124FEF8E6F918E6F82D
:051569007A10E4FBFC18
:0E156E00E58225E0F582E58333F583EB33FB60
:0E157C00EC33FCEB98F5F0EC994006FCABF07C
:03158A0043820198
:03158D00DADF2280
:06159000121633BC00033B
:031596000218DF59
:08159900EF60FA30D502B2D177
:0815A100E583B4FF030218F515
:0815A900E582B4FF030218F50E
:0B15B100258340072482400B0218DF56
:0815BC0024831450030218F50A
:0E15C400F582EA8DF0A4A8F0EA8EF0A428F8D3
:0E15D200E435F0F9EB8DF0A428E935F0F9E4EA
:0E15E00033CA8FF0A429F9EA35F0FAEBF88E41
:0E15EE00F0A429F9EA35F0FAE433FBEC8DF0B5
:0E15FC00A429F9EA35F0FAE43BFBE88FF0A4ED
:0E160A002AFAEB35F0FBE433CCFD8EF0A42A77
:0E161800FAEB35F0FBE43CFCED8FF0A42BFB6D
:0A162600EC35F0FC20E7031216611A
:031630000218BEDF
:0D163300AA82AB83A2F73392D16002D2F7F6
:0E164000F582ACF0E58124F9F8E6FD08E6FE3F
:0E164E000886F008E6A2F73392D56002D2F7C4
:05165C00F583AFF02250
:06003700E478FFF6D8FD9D
:0216610078040B
:0E166300EC700DC9CACBFCE58224F8F582D8E4
:02167100F12264
:021673007820DD
:0E16750020E7111582C3E933F9EA33FAEB33AB
:06168300FBEC33FCD8EC87
:01168900223E
:080015007900E94400601B7A48
:05001D0000901FD578E2
:030022000075A0C6
:0A00250000E493F2A308B8000205FE
:08002F00A0D9F4DAF275A0FF7C
:0E168A0020F71030F6118883A88220F507F6AD
:05169800A8837583002A
:01169D00222A
:03169E00F280F7E0
:0216A100F02235
:0E16A30074FE2581F8E68582F0A4C0E0858201
:0E16B100F018E6A4F582D0E025F0C58386F09F
:0616BF00A42583F583223F
:0316C500121633C7
:0916C8007900E583B58202800D72
:0516D100500312190D89
:0816D600E583C39582121A0B93
:0816DE00E5D0C465D020E1173E
:0E16E600EA2DFAEB3EFBEC3FFC5009740112BA
:0616F4001A0BEC4480FC1F
:0316FA000218BE15
:0E16FD00C3EA9DFAEB9EFBEC9FFC500FC3E48A
:0D170B0099F9E49AFAE49BFBE49CFCB2D14E
:061718001216610218BE6A
:08003D007800E84400600A7934
:030045000075A0A3
:0600480000E4F309D8FCFE
:08004E007800E84400600C7921
:0B00560000900000E4F0A3D8FCD9FAF1
:0E171E00F9C2D530E715D2D5E4C39582F58225
:0D172C00E49583F583E495F0F5F0E499F978
:0E173900E58124FBF886020886030886040872
:0E174700E6FD30E70DE4C39AFAE49BFBE49C58
:04175500FCE49DFD16
:0E1759001217F030D512E4C39582F582E495A4
:0A17670083F583E495F0F5F0E499B2
:011771002255
:0E177200FBC2D530E715D2D5E4C39582F582CF
:0D178000E49583F583E495F0F5F0E49BFB20
:0E178D00E58124FEF8E630E715B2D5181818ED
:0E179B00E4C396F6E40896F6E40896F6E40831
:0217A90096F6B2
:0E17AB0018181812185730D513FBE4C3958296
:0E17B900F582E49583F583E495F0F5F0E49B6A
:0117C70022FF
:0C17C800E4AC83AB82FAF9748E021A01C3
:0B17D4007F8E121A54F58385F08222EC
:0E17DF00F9E58124FBF88602088603088604DB
:0317ED0008860566
:0B17F0007800EA4B4C4D60587800C3B5
:0E17FB0008ED20E727EA25E0FAEB33FBEC339C
:0E180900FCED33FDE5829AE5839BE5F09CE95A
:0E1817009D50E1C3ED13FDEC13FCEB13FBEA57
:0218250013FAB4
:0E182700E5829AE5839BFEE5F09CFFE99D407B
:0B1835000AF98FF08E83E5829AF5829D
:0E184000C3ED13FDEC13FCEB13FBEA13FAD817
:02184E00D8E9D7
:011850002275
:06185100FBE58124FBF819
:0A185700E6F9087A20E4FCFDFEFF2C
:0E186100E5822582F582E58333F583E5F033D9
:0B186F00F5F0EB33FB4017DAE9804294
:0E187A00E5822582F582E58333F583E5F033C0
:05188800F5F0EB33FB5D
:0E188D00EC33FCED33FDEE33FEEF33FFEC9950
:0E189B00ED96EE0896EF089618184013EC999B
:0E18A900FCED96FDEE0896FEEF0896FF18186F
:0318B70043820168
:0218BA00DABE94
:0218BC00EB221D
:0618BE00B98003EA13B338
:0E18C4004010EA2401FAE43BFBE43CFC500433
:0418D2007C8005828F
:0918D600BC000EBB000BBA0008B7
:0818DF00E4F5F0F583F5822227
:0E18E700A2D1E582138CF092F78B838A8222C5
:0D18F500E4F583F58275F080F4A2D1132292
:0B190200E4F583F58275F0C0747F22CD
:0E190D00E582C583F582A2D133A2D592D11313
:0C191B0092D5ECCFFCEBCEFBEACDFA221B
:030008007581649B
:0A000B00121A4EE5826003020003A2
:0E19270020F71430F6148883A88220F507E616
:06193500A8837583002267
:03193B00E280F750
:03193E00E493220D
:02194100E022A2
:0E194300AAF0FB74FB2581F8E58286F0A9F07E
:0E19510008A4FCADF0E58389F0A42DFDE4357B
:0E195F00F0FEE58286F0A42DFDE5F03EFEE4EC
:0E196D0033FFEA89F0A42EFEE5F03FFFE5838C
:0E197B0086F0A42EFEE5F03FFFE5820886F020
:0E198900A42EFEE5F03FFFEB89F0A42FFFE552
:0E1997008386F0A42FFFEA1886F0A42FFFE548
:0E19A50082080886F0A42F8EF08D838C82229B
:0A19B300E58124FEF8860118860085
:0619BD00E84960367A01E2
:0E19C300E825E0F8E933400EF9E58298E58367
:0619D1009940030A80ECBE
:0219D700C3E962
:0519D90013F9E813F80A
:0E19DE00C3E58298F5F0E583994005F5838511
:0219EC00F08287
:0919EE00C3E913F9E813F8DAE784
:0119F70022CD
:0919F800FCABF0AA83A982749EE5
:021A0100C2D150
:081A0300F5821216610218BE03
:091A0B006040F82582500274FFCE
:0E1A1400F582E824F8501ECCCBCAF9E4CC24AD
:0E1A2200F85014CBCAF9E4CB24F8500BCAF9E3
:091A3000E4CA24F85003790022F5
:051A390024086010F814
:0E1A3E00C3EC13FCEB13FBEA13FAE913F9D81F
:011A4C00F1A8
:011A4D002276
:041A4E00758200227B
:021A52007F9E75
:091A5400121A7930D1030218DFE7
:0E1A5D00C3EF9582500974FFF5F0F583F58212
:011A6B002258
:051A6C007900121A0BC5
:081A710089828A838BF0EC22CC
:0D1A7900AA82AB83A2F73392D16002D2F7AC
:051A8600F582ACF02226
:00000001FF
